:100000000C9434000C9451000C9451000C94510049
:100010000C9451000C9451000C9451000C9451001C
:100020000C9451000C9451000C9451000C9451000C
:100030000C9451000C9447010C9451000C94510005
:100040000C9451000C9451000C94DE010C940C02A1
:100050000C9451000C945C010C9451000C945100D0
:100060000C9451000C94510011241FBECFEFD8E026
:10007000DEBFCDBF11E0A0E0B1E0E4E5F5E002C0F5
:1000800005900D92AC31B107D9F721E0ACE1B1E0B8
:1000900001C01D92A136B207E1F70E94F6000C9450
:1000A000A8020C940000299A85E08A95F1F70000D7
:1000B00029980895CF93C82F662311F0289A01C07C
:1000C0002898549A559A569A579A5F985E985D98D0
:1000D0005C98CC230CF45F9AC6FD5E9AC5FD5D9AD0
:1000E000C4FD5C9A0E9453005F985E985D985C988E
:1000F000C3FD5F9AC2FD5E9AC1FD5D9AC0FD5C9A28
:100100000E9453005C9A5D9A5E9A5F9A87EB9BE02F
:100110000197F1F700C00000CF91089560E00E94C0
:100120005A000895611104C080580E948E000895FD
:1001300080540E948E00089581E00E948E000895F0
:1001400061E00E945A000895CF93DF93EC0121965D
:10015000FC018081882329F00E94A00089918111EF
:10016000FBCFDF91CF910895CF93C82F209A559A56
:10017000219A549A559A569A579A8FEF99EF019768
:10018000F1F700C000005D9A5C9A0E9453008FE175
:100190009EE40197F1F700C000000E9453008FEF2A
:1001A00090E00197F1F700C000000E9453008FEF2C
:1001B00090E00197F1F700C000005C980E945300A6
:1001C0008FEF90E00197F1F700C0000088E20E94F5
:1001D0008E0088E00E948E000E949C0086E00E94B3
:1001E0008E008C2F0E948E00CF9108958CE00E948B
:1001F000B40060E081E00E94920080E091E00E9403
:10020000A40061E083E00E94920087E091E00E94F8
:10021000A40060E088E00E9492008CE091E00E94DF
:10022000A40060E08DE00E9492008EE091E00E94C8
:10023000A40061E088E00E94920080E191E00E94C9
:10024000A400ECE7F0E08081806480838081807F7F
:100250008083EAE7F0E08081806880838081886025
:100260008083808187608083E1E8F0E080818B7FFC
:100270008083808183608083EFE6F0E0808181600D
:10028000808387E690E00E9436027894FFCF1F9229
:100290000F920FB60F9211248F93EF93FF93EAE71B
:1002A000F0E0808180648083FF91EF918F910F90C7
:1002B0000FBE0F901F9018951F920F920FB60F92BE
:1002C00011240F931F932F933F934F935F936F933B
:1002D0007F938F939F93AF93BF93EF93FF93CF93AE
:1002E000DF9300D000D0CDB7DEB780E390E39A83F0
:1002F00089839C838B83009178001091790060E062
:1003000088E00E94920082E191E00E94A4004AE00D
:10031000BE016F5F7F4FC8010E94730260E088E0FA
:100320000E949200CE0101960E94A400CE01019687
:100330000E94640285E191E00E94640260E08DE029
:100340000E94920082E191E00E94A40040E1BE017F
:100350006F5F7F4FC8010E94730260E08DE00E94D2
:100360009200CE0101960E94A400CE0101960E9447
:10037000640285E191E00E94640261E088E00E94ED
:10038000920087E191E00E94A4000F900F900F90DF
:100390000F90DF91CF91FF91EF91BF91AF919F911E
:1003A0008F917F916F915F914F913F912F911F910D
:1003B0000F910F900FBE0F901F9018951F920F92E4
:1003C0000FB60F9211242F938F939F93EF93FF9368
:1003D0008091C0002091C6008C71E0911E01EF5FFA
:1003E000EF7190911D01E91739F0E0931E01F0E0E3
:1003F000EF5DFE4F208301C082E090911C01892BAC
:1004000080931C01FF91EF919F918F912F910F90FD
:100410000FBE0F901F9018951F920F920FB60F925C
:1004200011248F939F93EF93FF93909120018091DC
:100430001F01981769F0E0911F01EF5FEF71E093E2
:100440001F01F0E0EF5BFE4F80818093C60005C086
:10045000E1ECF0E080818F7D8083FF91EF919F91AF
:100460008F910F900FBE0F901F9018951092200142
:1004700010921F0110921E0110921D0199231CF46D
:1004800022E02093C00090789093C5008093C40030
:1004900088E98093C10086E08093C200089520918E
:1004A00020012F5F2F7190911F012917E1F3E22F97
:1004B000F0E0EF5BFE4F808320932001E1ECF0E061
:1004C0008081806280830895CF93DF93EC018881DF
:1004D000882331F021960E944F0289918111FBCF30
:1004E000DF91CF910895BB274A3031F4992322F44C
:1004F000BDE2909581959F4F0C947F02BB27FB0135
:100500005527AA27880F991FAA1FA41710F0A41B0C
:1005100083955051B9F7A05DAA3308F0A95DA19366
:10052000009779F7B111B1931192CB010C94980215
:10053000DC01FC01672F71917723E1F7329704C04A
:100540007C916D9370836291AE17BF07C8F30895D5
:04055000F894FFCF4D
:1005540076616C75653A006B65793A0061006200FA
:0C056400630020202020006E6F6E6500F8
:00000001FF
